:020000040000FA
:1000000000452020A9010000AD010000AF01000063
:1000100000000000000000000000000000000000E0
:10002000000000000000000000000000B10100001E
:100030000000000000000000B3010000A53B00002C
:10004000B701000045330000B7010000B701000010
:10005000B7010000B7010000B7010000B7010000C0
:1000600000000000B7010000B70100000000000020
:1000700000000000F1410000B7010000D541000080
:10008000F53E0000B7010000B7010000C13B0000D1
:10009000B7010000B70100000000000000000000F0
:1000A000B7010000B70100000000000000000000E0
:1000B000B701000000000000B7010000B701000018
:1000C00000F002F800F060F812A030C808382418D8
:1000D0002D18AC4201D100F057F80FCCA246AB4628
:1000E0000CA730CF2D1B083F3F197C427F1E544484
:1000F0002D090426F441641EAC4201D300F044F8FB
:100100000126334200D0FB1A3343984754465D46DC
:10011000DFE700007C5F00009C5F00000000000043
:10012000103A02D378C878C1FAD8520701D330C840
:1001300030C101D504680C60704700000000000069
:100140007047000000000000002300240025002666
:10015000103A01D378C1FBD8520700D330C100D583
:100160000B6070471FB501F011FE04000020002154
:1001700005F088FC401C60600020002105F06CFC4C
:10018000E0601FBD10B510BD01F0D8FD1146FFF7AE
:10019000E9FF04F033F902F03DF903B4FFF7F2FF91
:1001A00003BC02F039FC000006480047FEE7FEE70A
:1001B000FEE7FEE7FEE7FEE703480449024A044B78
:1001C00070470000C10000000005202000452020ED
:1001D000000520200FB400B58DB010A909900B9038
:1001E0000020C04300910A9000200C9007487844FA
:1001F0000690074878446A4607900F9909A800F0CE
:10020000ABFE0DB008BC04B0184700008B0D000019
:10021000A50D000001E004C0091F0429FBD28B07D3
:1002200001D50280801CC90700D0027070470029E8
:100230000BD0C30702D00270401C491E022904D310
:10024000830702D50280801C891EE3E70022EEE7C7
:100250000022DFE7002203098B4273D3030A8B429B
:1002600058D3030B8B423CD3030C8B4221D312E0B7
:1002700003460B437FD4002243088B4274D3030907
:100280008B425FD3030A8B4244D3030B8B4228D3A8
:10029000030C8B420DD30902FF2212BA030C8B42CE
:1002A00002D31212090265D0030B8B4219D300E06E
:1002B000090AC30B8B4201D3CB03C01A5241830BF3
:1002C0008B4201D38B03C01A5241430B8B4201D3A3
:1002D0004B03C01A5241030B8B4201D30B03C01ACC
:1002E0005241C30A8B4201D3CB02C01A5241830A46
:1002F0008B4201D38B02C01A5241430A8B4201D375
:100300004B02C01A5241030A8B4201D30B02C01A9E
:100310005241CDD2C3098B4201D3CB01C01A524105
:1003200083098B4201D38B01C01A524143098B428E
:1003300001D34B01C01A524103098B4201D30B0177
:10034000C01A5241C3088B4201D3CB00C01A52419C
:1003500083088B4201D38B00C01A524143088B4261
:1003600001D34B00C01A5241411A00D201465241FA
:10037000104670475DE0CA0F00D04942031000D319
:10038000404253409C46002203098B422DD3030A6E
:100390008B4212D38901FC2212BA030A8B420CD37E
:1003A000890192118B4208D3890192118B4204D3A7
:1003B00089013AD0921100E08909C3098B4201D327
:1003C000CB01C01A524183098B4201D38B01C01A61
:1003D000524143098B4201D34B01C01A52410309D8
:1003E0008B4201D30B01C01A5241C3088B4201D387
:1003F000CB00C01A524183088B4201D38B00C01A34
:100400005241D9D243088B4201D34B00C01A52410A
:10041000411A00D201465241104663465B1001D397
:100420004042002B00D54942704763465B1000D321
:10043000404201B50449002802DC491C084000E0A4
:100440000846C046C04602BDFFFFFF7F70477047A9
:10045000704700000246C80FC00781434B0030B50B
:100460004B405B009B0D20D01923DB06C9180123EC
:100470001B05994220DB0324A40704251346AB4047
:100480000BD3002B04D1EB0613409B00E34204D4B2
:1004900001246407002312195941FF231B059942C7
:1004A0000BD2C9000143500F09E0CB0204D5014330
:1004B0000803024305D0054830BDFF21C9050843A4
:1004C00030BD084607210905884330BD0000C07FC4
:1004D000F0B5F94D0C091E092C402E402F468BB06B
:1004E000A7437DD0B543FCD0002E7AD0002CFCD0A1
:1004F0000D465D40ED0F2543AC1BFF25AD0464198F
:100500000894C502440DC9022143500DDC02044386
:100510000120C00701430443D2020191200C110CB9
:1005200000958C46010423468B430A9161460904D9
:10053000E24D8A430991010A7D44491980390978BD
:1005400005464D4301266D18F605751B6943C90C18
:10055000640B891C4C436418B5012C1B250C2E041C
:10056000B4434C434D43210C691889090591009D02
:10057000E90701D00121C90704912C4601996708B8
:10058000CD072F434C08059DE10B4D432D0C29460B
:100590006646754302950D4645432E46029D7D1BDA
:1005A000B44100950D465D4301942C0C2F040D467B
:1005B0005543AE462D0C3D43029503947546049C6D
:1005C0002D04641B049406D2029C039D641C002627
:1005D00075410395029401AC70CC009F7D1B01E036
:1005E0003EE162E1B4410904009507910194059947
:1005F000A4086143090C0C464443650BE7040C4610
:1006000066467443A646640B3C43039502947446C5
:10061000049DE4042C1B049406D2029C039D641CDC
:10062000002675410395029401AC70CC009F7D1BA0
:10063000B44101940C465C430095650FE7000C46FD
:100640005443A646640F3C43039502947446049DAC
:10065000E4002C1B049406D2029C039D641C00261B
:1006600075410395029401AC70CC009F7D1BB44191
:10067000AE09AF06049DC900AD092F43049DA40631
:10068000AD060495079D344369180791059DE10B5C
:100690004D432D0C29466646754302950D4645434C
:1006A0002E46029D7D1BB44100950D465D4301948D
:1006B0002C0C2F040D465543AE462D0C3D430295A0
:1006C00003947546049C2D04641B049406D2029C7A
:1006D000039D641C002675410395029401AC70CC07
:1006E000009F7D1BB44101948C050694079C890AE8
:1006F000611800950791019C0599A4086143090CB4
:100700000D464543680BEF040D46644665436C0B8C
:100710003C43049FED047D1BAC4602D20025641CC3
:100720006841009E019D371B85410846584301954D
:100730000C46460FC5005443600F28436546E4004D
:100740002C1B02D20025401C6E41019D3F1AB54171
:100750002846BD09800628438446A009BF064E02EC
:100760000699A40676180743079D002068410A9958
:10077000079019430020099B00906046FF1913431E
:100780004041E20F64003A43A4460446D71A8C4124
:10079000A04203D90120009020463A46C70F941882
:1007A00040416246D20F2243644664000494009C98
:1007B000BE466400D71AA446044602978C41774689
:1007C000002F01D1A04204D96046401C8446029A01
:1007D0002046C40FA64694184041049A0546D20FFD
:1007E000224364466400D31A8D417146002901D129
:1007F000A84202D928461A46641C10430122002848
:1008000000D0164361020020079B891904465C4111
:100810000223002C02DB491813466441089DCE0ACE
:100820002D145D194B056705E10A2C050D19089972
:100830003E43C9076940002B08D0934006D30022ED
:10084000761C5141002B01D1760876001C4A002D00
:1008500043DB154241D0AA433FD030460BB0F0BD38
:1008600006180D464D41174C7642AC411AD39518E7
:100870001C465C41134A6D42A24113D3012252052A
:100880004C00D4420AD15C00D4420BD04B4002D57C
:1008900092021143E2E749004908DFE75940C90FD6
:1008A000C90718E000200849D8E7054801420DD1E2
:1008B0000342F7D0F2E700000000FF07785900007C
:1008C0000000F07F0000E0FF0000F87F1148594071
:1008D0000143C01241400020C0E70123089A9B0653
:1008E0009A4205DC032252078918C90FC907B5E7E8
:1008F000052252078918074A1143D2125140ADE729
:1009000070B515461C4602460B4628462146FFF7A1
:10091000DFFD70BDFFFFFF7F1F22030C02D10F22FE
:10092000000402D0030E03D004E00020014670470B
:100930000002083A030F01D10001121F830F01D1F9
:100940008000921E002801DB4000521E1205511843
:100950004205C012411810467047C10FC90700D0A8
:100960004042012292071143D6E701218907D3E7CC
:100970000121C9050123411842001B06D3185B0E53
:100980000AD0C1100722D206891840075242D1422C
:1009900001D5520089187047090208D50146002A7E
:1009A00003D0C10FC90700207047104670474202AC
:1009B00002D0002002497047072109050143F4E7EE
:1009C0000000F87FF0B5FF252D04C609C209FF27F6
:1009D00004462E400137CB093E4348402A402B4075
:1009E0000746002A6BD0002B69D0AA4267D0AB42E1
:1009F00065D0002800DA32460125ED0529432C4355
:100A000009022002090AD21A4B0C7F24E31A434C34
:100A1000000A7C44E35C7D242404121914145B0056
:100A2000A218884201D3521C00E0400049420C4603
:100A30005C4324115C43DB016415E318040A5C4346
:100A4000C502200D0C4644436419250A5D43230367
:100A5000EC0C0D46654300030019EB184C42A34211
:100A600001D35B18401CD4052018002B07D05B0075
:100A7000C91804D3401C002901D1400840003F217F
:100A800089048A4209D3002A08DC1106090F04D020
:100A9000032149074018C00FC007F0BD01224100E3
:100AA000120689187F2252069142F6D20521490783
:100AB000C84201D59010F0BDFF20C005F0BD002F49
:100AC00000DA32461648AA4207D2AB4205D21902D2
:100AD000090E17D0F80FC007F0BDFF2563002D06E3
:100AE000AB42F9D84900A942F6D8AB4201D1A9429C
:100AF000F2D0A94201D1002101E061004908D005EE
:100B00000843F0BD1102090EFBD0FF200243D005BF
:100B1000F0BD0A460146104654E700001E5500008D
:100B20000000C07F10B501469E240002CA15A3072D
:100B3000002A02D01843002A04DBA21A002A0CDD86
:100B4000D04010BD1206120E01D140004008A21A7A
:100B500003D4D04040420028F3DDFF2248001206B3
:100B6000904201D9002010BDC817C043584010BDA5
:100B70001F22030C02D10F2200041CD0030E01D14E
:100B80000002083A030F01D10001121F830F01D1A7
:100B90008000921E002801DB4000521ED205511831
:100BA000021251181922904004D3491C002801D187
:100BB0004908490008467047C10FC90700D04042A4
:100BC000012292071143D3E701218907D0E7FFB53E
:100BD0001C460025ED4385B00020009001909F68E1
:100BE0005E68A16906986D1C88470290216A884753
:100BF0000028F6D10298401C0CD003204002864306
:100C0000002F19DD700614D502982B2809D02D2845
:100C10000FD103E00020C04309B0F0BD01208002E5
:100C20000643A16906986D1C88477F1E002F02901D
:100C300002DD0298302803D00798002828D024E04D
:100C40000120A169400206436D1C06987F1E88475B
:100C5000002F029003DD782805D0582803D007988C
:100C6000002810D011E00798002801D010280CD1DE
:100C70000120A169400286436D1C06987F1E8847AB
:100C80000290102000E008200790C017039016E0A3
:100C90000A20F9E70120039B40020643079A0199C5
:100CA00000987F1E00F0F6FA029AD3178018594177
:100CB00001910090A16906986D1C88470290002F51
:100CC00006DD0799029800F006FB00280290E1DAA1
:100CD000E16906988847B00502D40120C0439BE72C
:100CE000F00710D1700610D5700505D50098019B4E
:100CF000002241429A4101E0019A00992068031DB7
:100D00002360006806C0284686E72068011D216030
:100D10000068019A0099F5E7FFB51D460027FF43DB
:100D200083B05C68002001909E68A96904987F1CCC
:100D300088470090296A88470028F6D10098401C0F
:100D40000CD0032040028443002E19DD600614D528
:100D500000982B2809D02D280FD103E00020C04394
:100D600007B0F0BD012080020443A96904987F1CEC
:100D70008847761E002E009002DD0098302803D0B0
:100D80000598002825D035E00120A96940020443D8
:100D9000761E04987F1C8847002E009003DD78287B
:100DA00005D0582803D00598002810D022E00598D7
:100DB000002801D010281DD10120A96940028443D8
:100DC000761E04987F1C88470090102002E00820BF
:100DD00000E00A2005900DE00121059A49020C432C
:100DE0000199761E514308180190A96904987F1C47
:100DF00088470090002E05DD0599009800F06BFAF9
:100E00000028E9DAE96904988847A00502D401209E
:100E1000C043A5E7E00722D1600611D5600501981F
:100E200000D5404229680A1D2A600968220501D5BB
:100E3000087014E0220701D5088010E008600EE079
:100E40002868011D29600068210502D501990170FB
:100E500005E02107019901D5018000E001603846D5
:100E60007EE7FFB5144683B000200026009050684E
:100E7000019091699768049888470C9905460698EF
:100E8000084305D009E0A1690498761C8847054607
:100E9000216A284688470028F5D1681C03D00198AC
:100EA000C00704D017E00020C04307B0F0BD2068A1
:100EB000011D2160006800900DE00198C00704D179
:100EC000009805700098401C0090A169761C049859
:100ED0007F1E88470546002F1CDD681C1AD0069827
:100EE00000280FD0E817C00E4019411140098A00B0
:100EF0000699400151182A1A0968012090400142C0
:100F0000DBD107E00C980028D7D12846216A884712
:100F10000028D2D0E169049888470C98002807D1AE
:100F2000002E05DD0198C00702D100980021017054
:100F3000A068B84204DD0C98002804D0002F02D02D
:100F40000120C043B1E73046AFE700000268511806
:100F5000137801601846704710B5D160054979448F
:100F6000516105497944116200211161114600F077
:100F7000C1F910BDEBFFFFFF5D0300004268002ACE
:100F800008D001680B78491C002B03D0521E06C004
:100F9000184670470121C160881E70474268002AC8
:100FA0000BD0C3680168002B07D183688B4204D043
:100FB000491E521C06C0002070470020C0437047E5
:100FC000FFB5144687B000200190506803909768E1
:100FD0000020029006460490059091690898884781
:100FE000109905460A98084305D009E0A1690898B8
:100FF000761C88470546216A284688470028F5D18F
:10100000681C03D00398C00704D02CE00020C04324
:101010000BB0F0BD2068011D21600068019022E046
:1010200004AA6846E9B200F0C5FD411C07D0801C47
:1010300009D0002002900398C00707D00DE0E169B5
:101040000898884746E00120029007E0684601883A
:10105000019801800198801C01907F1EA169089869
:10106000761C88470546002F1CDD681C1AD00A989C
:1010700000280FD0E817C00E4019411140098A001E
:101080000A99400151182A1A09680120904001422A
:10109000C6D107E010980028C2D12846216A8847A7
:1010A0000028BDD0E169089888470298002811D12E
:1010B0001098002806D1002E04DD0398C00701D146
:1010C00001990880A068B84204DD1098002804D077
:1010D000002F02D00120C0439AE7304698E7FFB5C1
:1010E000144685B00020009050680190966800205A
:1010F0000290054603909169069888471099074623
:101100000898084305D009E0A16906986D1C884736
:101110000746216A384688470028F5D1781C03D055
:101120000198C00704D01CE00020C04309B0F0BD06
:101130002068011D21600068009012E00198C0073E
:1011400009D1B9B2009802AA00F055FD411C34D073
:10115000009908180090A1696D1C0698761E8847B2
:101160000746002E14DD781C12D00898002807D0FE
:101170003B460F9A0E9900F00DFD0028DED107E0E6
:1011800010980028DAD13846216A88470028D5D03F
:10119000E169069888471098002806D1002D04DDE3
:1011A0000198C00701D100990870A068B04204DD21
:1011B0001098002804D0002E02D00120C043B5E7CB
:1011C0002846B3E7FFB5144683B000273D46506874
:1011D0000190916996680498884700900E99069846
:1011E000084305D009E0A16904986D1C8847009068
:1011F000216A009888470028F5D10098401C03D048
:101200000198C00704D014E00020C04307B0F0BD2F
:101210002068011D216007680BE00198C00702D11A
:1012200000983880BF1CA1696D1C0498761E884701
:101230000090002E15DD0098401C12D00698002862
:1012400007D0009B0D9A0C9900F0A4FC0028E4D173
:1012500007E00E980028E0D1216A0098884700280E
:10126000DBD0E169049888470E98002805D1002D4D
:1012700003DD0198C00700D13880A068B04204DDCA
:101280000E98002804D0002E02D00120C043BDE7F4
:101290002846BBE74343514330B55C18010C130C9F
:1012A0000D4692B25D4380B251432C190546554319
:1012B0000A0C09044D1962415843010C00044019FD
:1012C000514130BD10B5044600F058FD0068005D86
:1012D000C007C00F10BD3A2800D230382023024684
:1012E0009A43412A01D310463738884201D300205F
:1012F000C0437047F3B50C468FB000200C9001201E
:1013000000260E9008460C30039062690398012174
:101310009047051E2ED0252D2DD0216A8847002804
:1013200018D06269039801219047216A88470028F4
:10133000F7D16269411E0398904700E0761CA169CD
:101340000F988847216A88470028F7D1E1690F98EC
:101350008847DAE7A1690F988847A842074601D174
:10136000761CD2E7E1690F9888477F1C02D10C9860
:10137000002877D06BE16269039800273D46394623
:1013800090472A280CD162690398012190470125D2
:1013900006E00A214F433F18303FEBD410200543AD
:1013A0006269039801219047014630390A2903D226
:1013B000AC498F42DEDCECE7E90600D4AA4F6C288A
:1013C0000AD04C2810D0682824D06A282ED074283F
:1013D0000CD07A280AD00DE0626903980121904769
:1013E0006C2823D004211CE0202005436269039867
:1013F00001219047A760652865604FD026DC5828FA
:1014000039D01ADC452849D012DC252834D04128AF
:10141000B0D143E06269039801219047682802D067
:1014200008210D43E6E70120C002DEE70220DCE7E9
:10143000462833D047289DD130E05B2870D0612802
:101440002CD063286CD0642894D161E06F284FD0F1
:1014500009DC662822D0672820D0692826D06E288B
:1014600017D12EE0EFE070284DD073286FD075288B
:101470004ED078280DD154E0A1690F9888472528CF
:10148000054600D16CE7E1690F9888476D1C00D1D3
:101490006DE7DCE00A224CE00A2252E001202346FC
:1014A0006A460F99C04304F0EDFCC5E04021284690
:1014B000234608436060A80701D5002239E00022D6
:1014C0003FE0E80700D020E72068011D21600068A8
:1014D000290501D5067018E7290701D5068014E70C
:1014E000A90703D5F117066041600EE706600CE717
:1014F00040212846234608436060A80701D50822FA
:1015000017E008221DE0594928460840606016E0AF
:1015100040212846234608436060A807BCD5B9E7A8
:1015200015E04021284608436060A80707D52346F8
:10153000102201200F99C043FFF749FB7CE01022E5
:10154000234601200F99C043FFF7E6FB74E000211A
:1015500063280B460191009102910D9102D05B2806
:1015600007D03BE0E80601D40120A06001200090F4
:1015700034E0E06801210D906269039890475E288D
:1015800007D101200190E06801210D906269039864
:1015900090472169002906D10B4604AA8F00491CF7
:1015A0000829D351FADB002851D02169002926D01F
:1015B0000298401C029062690398012190475D28BF
:1015C000F1D10198002808D0002004AB8100401C14
:1015D0005A58D24308285A50F8DB04AB2069002837
:1015E00020791CD04007029A00980D9B0092224659
:1015F00002901F480F991DD5FFF7E4FD1CE0C117AD
:10160000C90E09184A114909930004AA9A184901F8
:10161000411A13680120884003431360CBE7400759
:10162000224613480F9902D5FFF7CAFC04E0FFF7E2
:1016300018FC01E0FFF753FD00280ADA401C06D130
:101640000E98002803D00020C04311B0F0BD0C98C4
:10165000FBE7E90702D10C99491C0C9136180020D0
:101660000E9052E6CCCCCC0CFFFFFF7FF1F7FFFFD2
:10167000FEFFFFFFFFB58BB00878FF2806D0491C9E
:101680002D2805D000230020009009E000200EE066
:101690000123F8E7009A0A2462438018491C00904D
:1016A0000878FF28F6D1002B02D000984042009025
:1016B000002503952C460D9800782D2801D02B2865
:1016C00015D10D99491C2D280D9102D000200390B1
:1016D0000DE00120FBE7401C214600270A223B4683
:1016E0000D902846FFF7D6FD35183C464C410D9825
:1016F0000678FF2EEFD1002108460020C04603994E
:10170000002902D08100401840080002860F012EF7
:1017100001DD0026F6430E9900984718284620431D
:101720000BD0FF20F530C7421ADA0398C1070B9897
:10173000002E41600ADD012009E00398C1070B98E3
:1017400041600B99002008600FB0F0BD00200B999C
:10175000086000F01FFB02210160182108461AE012
:10176000FF20F530874219DD002E02DAFC4878446C
:1017700001E0FC48784406C80B9806C00B98039912
:101780004068C90708430B99486000F003FB022139
:101790000160142108460020C046D5E70021084614
:1017A0000020C04639000A9001D5724200E032465E
:1017B000002900DA794207A800F000FB07AB07CB4D
:1017C00004AB07C3E848009000200146214304D140
:1017D0002C460546E44920390091210C09040143B7
:1017E00006D1290C24040C4300992D0410390091D2
:1017F000210E0906014306D1290E24020C4300994B
:101800002D0208390091210F0907014306D1290F44
:1018100024010C4300992D01091F0091A10F890794
:10182000014306D1A90FA4000C430099AD00891E05
:101830000091E10FC907084304D100986D19644174
:10184000401E0090002F0295019406DD3246684646
:10185000012304A900F046FD05E001233246684655
:1018600004A900F094FD044603980D46002802D018
:101870000120C0074440002108460020C0460A99C4
:10188000BA4E48400007800F07D160004008284347
:1018900003D06000400DB04214D100F07BFA022169
:1018A00001606000400DB0420CD1B148784406C8D8
:1018B0000B9806C00B98E10FC907406808430B99C5
:1018C000486041E70B9844600B9805603CE7FFB522
:1018D0001F4695B0002000250C909E685C68ED4383
:1018E000139000F053FAC0680168405C1490B96925
:1018F00016986D1C88470A90396A88470028F6D1E7
:101900000A98401C0AD00D20C0018443002E12DD2D
:101910000A982B2809D02D280DD103E00020C043C0
:1019200019B0F0BD012080020443B96916986D1CFE
:101930008847761E0A90600504A901D52D2000E095
:101940002B206A46491C107410A8002E0D910B9094
:101950003BDD0A98692805D0492803D06E2801D0BC
:101960004E281DD13B46039002200296179A1699E5
:10197000C0430095019404F095FAC11CD0D10FE04A
:10198000B96916986D1C88470A900120761E40029E
:101990000443179805601398401C002E139014DD23
:1019A0000A983028ECD0782801D058280DD1139807
:1019B00001280AD13B460296179A1699001F0095F6
:1019C000019404F067FAC11CAAD114990A988842BC
:1019D00045D18020044308E00C981799401E0C90D4
:1019E000012040020443681C0860B9696D1C169808
:1019F000761E884730280A90EED030E0149988424D
:101A000005D1200603D480200443761E1DE00A98E9
:101A100003F0B7FF002825D001210A9849020C43A2
:101A20000D9908AA03323038761E914208D2087008
:101A30000D98401C0D90200607D50C98401E03E021
:101A4000200602D40C98401C0C90A00502D51799D2
:101A5000681C0860B96916986D1C88470A90002EAA
:101A6000CCDC59E0002E57DD0A98652801D04528C6
:101A700052D1A00550D50320B969000284436D1CE2
:101A80001698761E8847002E0A900CDD2B2804D06D
:101A90002D2808D1FF2001300443B96916986D1C28
:101AA0008847761E0A90E00501D52D2100E02B2104
:101AB0000B9801700B98401C0B90009025E00120C2
:101AC00012A9400204430B980131761E88420ED2BF
:101AD0000A980B9930380006000E087003D100995F
:101AE0000B9888420AD90B98401C0B9006E0E00541
:101AF00001D5204801E01F4840420C90B969169872
:101B00006D1C88470A9017980560002E04DD0A981E
:101B100003F037FF0028D2D1F969169888470D994C
:101B2000FF2004AA08700B99087000200E900F90F7
:101B30000C9B10A90EA8FFF79DFDA00502D4012063
:101B4000C043EDE62420044216D0E00720D13868D7
:101B50000F9A0E99031D3B60006806C018E0000054
:101B600046490000384900003E400000FF070000E1
:101B700000480000F1D8FFFF0EA9684603F052FEAE
:101B8000E00705D13868009A011D396000680260DD
:101B90002846C5E610B509E00488801C9C4205D1A2
:101BA000002A01D0002010BD012010BD491EF3D233
:101BB000104610BDF8B516460C46054600F0DEF896
:101BC0000368FF200230C05C012805D0185D0028A2
:101BD0000ED001202C80F8BDFF333246214604335D
:101BE0001868C71868460023B84700992980F8BDCF
:101BF0000020C043F8BDF8B516460C46054600F077
:101C0000BDF80368FF200230C05C012807D0FF2C1C
:101C10000FD8185D00280CD001202C70F8BDFF33C0
:101C20003246214608331868C71828460023B847AB
:101C3000F8BD0020C043F8BDF8B5264C4E00069D07
:101C4000A6420AD8A64201D1002806D15E00A642CB
:101C500003D8A6420AD1002A08D00D242404254224
:101C600033D02946002000F0DDFBF8BD0C461C43B4
:101C700011D4994207D0C81A02D3EFF30080F8BDFF
:101C8000EFF30080F8BD801A02D3EFF30080F8BDB7
:101C9000EFF30080F8BD09242407E5008B4207D04C
:101CA000581A02D3EFF3008006E0EFF3008007E05C
:101CB000101A03D3EFF30080A04303E0EFF300809A
:101CC000A043284380F30088F8BD009500F0C2FBD4
:101CD000F8BD00000000E0FF10B5FF231B06440024
:101CE0009C421DD84C009C421AD80346124A0B4312
:101CF00007D4401A02D3EFF3008010BDEFF3008049
:101D000010BD081A03D3EFF30080904305E0EFF312
:101D1000008001219043C907084380F3008810BD6B
:101D20000D231B041A4204D01146002000F07AFB58
:101D300010BD00F099FB10BD00000090754600F04A
:101D40009BFBAE46050069465346C008C000854669
:101D500018B020B5FEF730FA60BCB6460026002762
:101D6000C0C5C0C5C0C5C0C5C0C5C0C5C0C5C0C54B
:101D7000403D490849008D467047000010B500F00D
:101D800005F8001D10BD00BFFD3C00000048704775
:101D900038002020004870471800202010B5202A65
:101DA00004DB0146203A9140002010BD91402023E1
:101DB0009C1A0346E3401943904010BDF7B5164600
:101DC0008AB0334878446C4603467C33C06F5A6807
:101DD0009B680DC42E487844763003AC0DC80DC402
:101DE0003720C001081837211B30FEF741FA05469D
:101DF0000C46803D1B3C02D56442012000E00020DF
:101E00000027099010E0E0070CD00C20204978430F
:101E1000794432464C3941186846012300F054FA9F
:101E20006B4607C364107F1C002CECD1184F7F4415
:101E30002E3F16E0E80712D02001C0190EC8069107
:101E4000089307920068F04201D198190890324631
:101E5000012306A903A800F037FA03AB07C36D10EE
:101E6000641C002DE6D10998002806D03246694648
:101E7000012303A800F07EFA05E0012332466946FB
:101E800003A800F021FA0A9B07C30DB0F0BD0000C3
:101E9000AC410000034640000A4610B5400D0BD08F
:101EA0000121C9070F24A40200191C03640821435F
:101EB000540D2143D20207E000210120F2E7D40FA4
:101EC000490021435200401E0029F8DADB0FDB07EE
:101ED000184310BDFFB50D46144685B048685168DB
:101EE00003F074FC00910190A868A16803F06EFCF7
:101EF00002910390A868616803F068FC029A1218C6
:101F00008242029201D2012000E00020019A0B18C7
:101F1000D2180028019202D08A4202D903E08A42F4
:101F200001D2012000E000200099081800906868A4
:101F3000A16803F04BFC029A12188242029201D26D
:101F4000012000E00020019A0B18D218002801920D
:101F500002D08A4202D903E08A4201D2012000E085
:101F60000020009908180090286821684000490066
:101F7000400849084018FA49471814E00199400000
:101F8000C90F08430090019802994000C90F084307
:101F90000190029803994000C90F084302900398EA
:101FA00040007F1E039000980028E7DA0898002878
:101FB00001D0EC4E00E00026B74201DA012000E03B
:101FC0000020002804902AD0F71BF806C00E15D078
:101FD000029B2021091A039A8B401A430392029A0A
:101FE000019BC2408B401A430292019A009BC2405F
:101FF0008B4000991A430192C14000917B110DD092
:102000006F460320C11A03D500218200B95003E0B6
:102010008A008100BA587A50401EF3D5374603989B
:102020000299002800D0012001430898029100285D
:1020300008460CD0002800D001200199019A4905DA
:1020400008430121D20AC902D202019200E0012113
:102050000E9B0122D207012B02D0002B03D013E0EC
:10206000002807D120E0904204D890420CD1019B77
:102070000B4209D0019B5918019105D10099491CC7
:10208000009101D17F1C009200280DD0102108463C
:102090000020C0460498002806D00F98002803D0DE
:1020A000082108460020C04628682168019B009A44
:1020B0004840C10F0598C90739430EC009B0F0BDAB
:1020C000FFB587B0099A08980899536892684068E4
:1020D000896896460022039317469446089A126828
:1020E0005300099A5B081268520052089A1A9E4BD4
:1020F000D4180A9A002A01D0352200E04022069224
:102100000022012315460492DB07059324E0002DED
:1021100005D175460346039E4D1BB34109D3754651
:102120006646039B491B049D9841059B7519AC4667
:102130005F4163463B4308D0059B049EDD0776085C
:102140002E435B080496059301E0521E641EC50FE2
:10215000ED0749184041521C069B9A42D7DB002DDF
:1021600004D17546039A6B1A824101D203200CE018
:10217000039A0B466B404240134303D0014303D004
:10218000012002E0022000E00020614601910021D0
:10219000009702910A99002905D061464002014347
:1021A000704B019102E08007002302909C4201DA0B
:1021B000012000E0002007003AD01A1BD006C00E14
:1021C00015D0029D2021019C091AC5408C40254351
:1021D000029C8C4000D001242543019C0295009D67
:1021E000C4408D4000992C430194C140009154118A
:1021F0001DD06D460221002202290CD10320001BB4
:1022000007E0002804DB8600AE59002E00D0012232
:10221000401C0328F5DB081B02D588002A5004E087
:102220008000285810438A00A850491EE3D51C4658
:102230000A98002802980CD0002800D001200199AB
:10224000019A490508430121D20AC902D20201922A
:1022500000E00121109B0122D207012B02D0002BAC
:1022600003D013E0002807D11FE0904204D8904229
:102270000CD1019B0B4209D0019B5918019105D14A
:102280000099491C009101D1641C009200280CD0D7
:10229000102108460020C046002F06D011980028C3
:1022A00003D0082108460020C04608980999019AE1
:1022B000009B006809684840C10F0798C90721437F
:1022C00082600AC00BB0F0BD00B585B001930092EA
:1022D0000A460146002302A8FFF7FCFD02A807C832
:1022E00005B000BDFFB50A461F4685B007990193AA
:1022F00001230091014602A8FFF7ECFD0299039823
:10230000049ECA0F4900D20700920F224908920288
:102310008C1A0021002800DB0C46450013486D088C
:10232000844214D3079A002A04DA441E0026104D72
:10233000F64302E004460D460E46102108460020F2
:10234000C046002F03D0042108460020C0462005C7
:10235000E90A0843009908436905F20A1143ADE60A
:1023600002C0FFFF013C0000FF3F0000FF0700002C
:10237000FFFFFF7F00B585B0019300920A4601463A
:10238000002302A8FFF79CFE02A807C8A8E7FFB534
:102390000A461F4685B00799019301230091014623
:1023A00002A8FFF78DFE02990398049ECA0F490008
:1023B000D20700920F22490892028C1A00210028AD
:1023C00000DB0C46450011486D08844214D3079A7F
:1023D000002A04DA441E00260D4DF64302E00446AE
:1023E0000D460E46102108460020C046002F03D09F
:1023F000042108460020C0462005E90A0843009948
:1024000008436905F20A114358E60000FF0700007F
:10241000FFFFFF7F10B50446C046C0462046FDF7CB
:10242000BCFE10BDC80212D54803400F002804D0DE
:10243000C803C043012188407047EFF300800001CA
:10244000000903210907084380F300887047002032
:102450007047000010B500200249029A00F0ACFA63
:1024600010BD00000000F87F10B5024800F0A4FA8B
:1024700010BD00000000C07F0048704718002020F9
:1024800010B5FFF787FC006810BD10B50446FFF7D4
:1024900081FC046010BD0000FFB51F4689B0139891
:1024A00012994005C00FC00705900020079005460F
:1024B0000446461E049002903C20491C129106904E
:1024C000B9690A98884703901498401E149014988C
:1024D000002841DD03982E2816D01021FEF7FBFEC0
:1024E000002834DB01210491079901431AD0069991
:1024F00000290CDB069AC117FFF750FC054306982C
:102500000C43001F069006E0012002900EE0002818
:1025100001D001200543012007900298002805D131
:10252000361D03E00298002800D0361F1298401C88
:102530001290B9690A98884703901498401E149025
:1025400004980028C3D00B9912980860BFE703983D
:10255000702808D0502806D0F9690A98884704984E
:10256000002815D051E0002003900120029004982B
:1025700000280AD01298401C1290B9690A9888471E
:102580001499491E0029149106DCF9690A988847B4
:102590000120C0430DB0F0BD2B2804D02D280DD153
:1025A0000020C04302901298401C1290B9690A980A
:1025B00088471499491E00291491E6DD411CE4D096
:1025C0000A21FEF788FE0028DFDB03990A22514327
:1025D000081803901298401C1290B9690A9888470D
:1025E0000A21FEF778FE14990B9A491E149112994C
:1025F00011601499002901DD0028E6DAF9690A98CA
:102600008847029903984843861913982421084063
:1026100004902846204304D0A10F8907090002D066
:1026200006E005989BE0A90FA4000C43AD00B61E80
:10263000E10FC907080002D16D196441761E0498A4
:10264000002803D00B2002905D4803E02820029070
:102650007D20C0438642039007DA811B0298081848
:102660004128029001DD41200290029A01200021C0
:10267000521EFFF793FB024628400B4621400843B9
:1026800001D0012000E0002007900020521EC0432E
:1026900043412A4023401A4301D0012000E000209A
:1026A00007990690014352D0002108460020C046F9
:1026B0000321059A89050840002A05D08200801868
:1026C000C20F1018401008408015012802DD0020BC
:1026D000C04301E0012815D0401C38D007980028DD
:1026E00035D0069800280DD1029A01200021FFF76D
:1026F00055FB28402140084301D0012000E0002084
:10270000002824D0029A01200021FFF747FB03464E
:1027100040198C4661412A1A8C410FD302984028F7
:1027200007DD0498039E002801D0343E02E0173EE6
:1027300000E0761C01240025E40708E05B1E6246E9
:102740000024E4436241DD43D44305400C40039838
:102750000121081AB04206DA1A4905980843019087
:10276000002000900EE060006205010BE80A1043B3
:10277000059A009068460A4313490A43314601927C
:1027800003F0BCF8049800280AD01398C00714D1AD
:102790003868019A0099031D3B60006806C00CE090
:1027A00002A8694603F03EF81398C00705D13868BF
:1027B000029A011D3960006802601298EAE6000082
:1027C00002FCFFFF0000F07F0000F03FFFB51D4658
:1027D00087B01198484A109C129E40051399C00F6B
:1027E000761EC0070243019200220092FF22D2050A
:1027F0001043202291434929059003D017464E29C2
:1028000028D04FE03DA002AA0BC801270BC2A9693E
:102810000898641C8847761E014607D402A8C05D4C
:10282000002803D02022914381420AD0E969089808
:102830008847032F36D0082F34D00120C0430BB077
:10284000F0BD7F1C032F01D0082FE0D10999601C37
:102850000860DCE7A9690898641C8847761E2DD4B7
:10286000B84341282AD1A9690898641C8847761E74
:1028700024D4B8434E2821D1A9690898641C8847FC
:1028800001990122D204114301910599D20011430B
:1028900005910999761E0C6001D4282806D0E969B3
:1028A000089888471198C00712D023E0A9690898B2
:1028B000641C8847761E01D4002803DAE969089869
:1028C0008847BAE72928F1D10998641C0460E9E730
:1028D00011982421084207D02868019A0099031D05
:1028E0002B60006806C005E028680599021D2A6073
:1028F000006801602046A2E70000F07F494E46498B
:102900004E4954590000000082078B079A423FD17C
:1029100070B5920F0AD0032402780B78401C491C32
:10292000002A33D09A4231D12042F5D1214EF40110
:1029300004C808C9951B9543254018D19A420FD168
:1029400004C808C9951B9543254010D19A4207D168
:1029500004C808C9951B9543254008D19A42E7D081
:1029600012BA1BBA01209A4200D2404270BD12BA7C
:102970001BBA2DBA18241000E0401900E140401A9B
:1029800005D12E00E64002D1083CF4D1D01A70BD2A
:1029900002780B78401C491C002A09D09A4207D1C2
:1029A00002780B78401C491C002A01D09A42EFD0D3
:1029B000D01A70470101010110B50C461107090F2B
:1029C000092904D00A290AD008290CD104E01146AB
:1029D0000820FFF727FD06E0510606D501E0510665
:1029E00001D50120C007214610BDD10607D5010140
:1029F0000909CC084907000E0006044309E0410F0D
:102A000020024907000A0143200E00061D22D14181
:102A100001430846E7E7000001491820ABBEFEE786
:102A20002600020070B505464800440D124B0020F8
:102A3000002C0AD0634008D09A4206DA6642B242BD
:102A400003DD12054019514170BD002C08D0002B48
:102A500009D0C90FC907002AF6DB084A114370BD27
:102A6000C90FC90770BD28460A03104302D00020D1
:102A7000034970BD284670BDFF0700000000F07FCD
:102A80000000F87F7047000080B508480249002226
:102A900000F014FB80BDC0468813000080B50348D9
:102AA000C821002200F00AFB80BDC046000009409A
:102AB00080B5FFF7F3FF034800F006F8FFF7E4FFE7
:102AC00080BDC04620A10700811E091F00BFFCD2A7
:102AD000704784B0039002910192039800680090BF
:102AE000009801998843009000980299019A11403A
:102AF00008430399086004B07047000070B50B01EB
:102B0000C31854689568254394892C431569566900
:102B10002543D48924012C4335012543092464022B
:102B20001D51137852781A43BF231A408900401868
:102B3000024944589C43A218425070BD1011000035
:102B400082B001900091009B0199AF4A88581843C8
:102B5000885002B07047C04682B001900091009B3F
:102B60000199A94A88581843885002B07047C04656
:102B700082B00190009100980199952252018850ED
:102B800002B0704782B0019000910098019995229F
:102B90005201885002B0704782B001900091009BB2
:102BA0000199A54A88581843885002B07047C0461A
:102BB00082B00190009100980199024A885002B0B9
:102BC0007047C046D012000081B0009000990120EB
:102BD000C2029F48885001B07047C04682B0019041
:102BE00000910198024940580099084002B070478E
:102BF0003810000010B584B0069C03900291019239
:102C000000930298019908430099084306990843E4
:102C100003490843039989001F4A885004B010BD36
:102C20008100040081B00090009881001A4A812040
:102C3000885001B07047C04610B584B0069C039020
:102C40000291019200930298019908430099084368
:102C50000699084381210843039989000E4A885048
:102C600004B010BD82B00190009100980349084360
:102C700001998900084A885002B07047800004001A
:102C800082B0019000910098802108430199890049
:102C9000014A885002B070470480424082B00190DF
:102CA000009101982721C90140580099084002B0BD
:102CB000704782B00190009101982721C9014058C6
:102CC0000099084002B0704781B000900099E74A2F
:102CD000E748885001B0704782B001900091009B96
:102CE0000199034A88581843885002B07047C0467B
:102CF0009013000082B00190009100980199074A5A
:102D0000885002B07047C04682B001900091009890
:102D10000199024A885002B07047C04690120000E4
:102D200082B001900091009B01999D20420188583A
:102D30001843885002B0704782B00190009100980B
:102D40000199024A885002B07047C046B012000094
:102D500081B001466846017001783020484302493D
:102D6000405801B07047C04600114040064908680D
:102D7000012290430860704703490868012212024B
:102D8000904308607047C04608010B4081B001467F
:102D90006846017000780249086001B07047C0467B
:102DA00008030B4080B582B0014601A8017001788C
:102DB0000F480F22FFF78DFE02B080BD80B582B0B4
:102DC000014601A80170017802480322FFF781FE45
:102DD00002B080BD00010B4080B582B0014601A861
:102DE0000170017802483022FFF773FE02B080BD07
:102DF00004010B4082B00190009100980199024AB1
:102E0000885002B07047C0464810000081B0009062
:102E10000099024A0120885001B070470811000053
:102E200082B001900091009B0199DF4A88581843B5
:102E3000885002B07047C0462810000081B0009052
:102E400000990120C202DE48885001B07047C04698
:102E50000100002681B0009000988121490140586E
:102E6000C0B201B070470000F0B5B64A82183B4BC3
:102E7000C31808794E793A4D774C002E23D020287C
:102E800004D00526F601002803D003E0354E0028C3
:102E900000D18826576F2F4037435767976F2F40D1
:102EA00037439767566B26405663966B264096636A
:102EB0000026566596658F26F6435F6837405F604B
:102EC0009F6837409F608E79096820280BD00028C2
:102ED00019D1491E5160D76E2F4088210F43D76604
:102EE0001746703719E0491E5160D16E29401D4FB9
:102EF0003943D166116F29403943116701214907D0
:102F0000194D174609E049085160D76E2F40052139
:102F1000C9010F43D766174670373C682C400C43F5
:102F20003C60D16A4C4C2140D162116B214011634D
:102F30000021D16411658F21C943D46F0C40D4673F
:102F40001C680C401C600643BD2030401168074BD4
:102F50000B40C018801C1060F0BDC04684180000F3
:102F600024493E0001040000FFFFFFCF4000FFCFD7
:102F7000B0B54A68364BC250724A80180A78222A85
:102F800058D8930001A4E3589F46C0462B30000058
:102F9000353000002B3000003530000035300000A7
:102FA000353000003530000035300000353000008D
:102FB000353000003530000035300000353000007D
:102FC0003530000035300000353000001930000089
:102FD0003530000019300000353000003530000079
:102FE000353000003530000035300000353000004D
:102FF000353000003530000035300000353000003D
:103000003530000035300000353000001930000048
:10301000353000001930000003231B0704689C436F
:1030200001235B07E318036004E003231B07046824
:103030009C4304600B69C360CB68064C1C40C36AA8
:10304000054D1D402B19C362097A11430160B0BDC3
:1030500008180000777702008888FDFF81B0009093
:103060000099784A7848885001B0704704080000F9
:10307000030000B182B001900091009801991122E3
:103080001202885002B0704710B507239B04194004
:1030900092008018024A84589C436118815010BDE8
:1030A0003018000010B5029CA40000191143194308
:1030B000014A815010BDC04650180000920080188F
:1030C000014A81507047C0461018000010B5012217
:1030D000120383180C789C604B78835089788B4A54
:1030E000815010BD10B586B001930B460146019882
:1030F000059104A90B8003AB1A8002AA10800598E1
:10310000104C001909881B88194312881143024A80
:10311000FFF7DFFC06B010BD80FF000081B000901B
:103120000099084A885801231843885001B0704715
:1031300081B000900099034A8858012318438850B1
:1031400001B070470418000081B000900099112070
:103150000202885801231843885001B070470000CC
:1031600082B00190009100980199024A885002B003
:103170007047C0465810000081B00090009911209F
:103180000202885801235B041843885001B070473D
:1031900082B001900091009B0199034A885818431E
:1031A000885002B07047C0462810000081B00090DF
:1031B00000990120C2020248885001B07047C04601
:1031C0000100002681B000900098812149014058FB
:1031D000C0B201B070470000B0B51122120283588E
:1031E0000124A34383500B888C781C438B88234392
:1031F000094C1C408358094D1D40631983508B793D
:10320000CC791C43097A21437E23194080184268F7
:103210009A4351184160B0BD18670000E798FDFF60
:1032200081B00090009802494058C0B201B0704788
:103230002411000081B000900099024A0248885091
:1032400001B0704704080000030000B180B584B0ED
:1032500003900291019203980B49401802990B4A7E
:10326000FFF737FC03980A49401801993F22FFF7FE
:1032700030FC0399074A8818895801221140FFF74A
:1032800028FC04B080BDC04610110000FFFF000004
:10329000141100000411000010B50122120383185C
:1032A0000C789C604978815010BD80B582B0019047
:1032B0000091019811210902401800990322D203BC
:1032C000FFF707FC02B080BD80B584B001910146D4
:1032D0000198039102A9087003980C4A8018097894
:1032E0007022FFF7F6FB04B080BDC04680B582B007
:1032F00001900091019805494018009909020F2298
:103300001202FFF7E6FB02B080BDC0460C110000C0
:10331000034A801802681206FCD481617047C046D7
:103320000811000081B00090009805490860FFE78F
:1033300003480068002801D0FFE7F9E701B07047B3
:103340001001202080B50120FFF702FD00283FD0AA
:10335000FFE7CC484021FFF741FC002817D0FFE7EA
:1033600001200103C848FFF799FC002805D1FFE7B9
:1033700018490868401E086004E016490868401CA7
:103380000860FFE7BF484021FFF7DAFBFFE70120B5
:10339000C106BC48FFF722FC002818D0FFE7012037
:1033A000C105B848FFF77AFC002805D1FFE70A49B4
:1033B0000868401C086004E007490868401E08606F
:1033C000FFE70120C106AF48FFF7BAFBFFE7FFE7C1
:1033D00080BDC046240120202C01202080B5E1487A
:1033E000FFF7A6FEC648FFF7A3FE80BD80B584B0F8
:1033F000154916480390FFF769FE03981449FFF733
:1034000033FD03980023029319461A46FFF76AFE1C
:10341000029B0398009319461A46FFF743FE029A4F
:1034200003981146FFF730FE029A03987D21C900E8
:10343000FFF744FE0398FFF7E9FC03980121FFF72B
:1034400019FE04B080BDC0460860000000000940BD
:103450000C60000080B5034A03480021FFF74EFBD3
:1034600080BDC0461460000000A0424080B5FFF758
:10347000F1FF80BD80B58EB00E200721FFF700FC64
:1034800080480C900421FFF793FB1F200621039135
:10349000FFF7F6FB0C9801210891C903FFF788FBA1
:1034A0002D200321FFF7ECFB089841057648099091
:1034B000FFF77EFB0B2002210291FFF7E1FB02994F
:1034C0000C20FFF7CFFB02991320FFF7CBFB0898E6
:1034D0000023059300930204049231201946FFF75C
:1034E000ABFB049A059B00932B201946FFF7A4FB26
:1034F0002020FFF797FB0F20FFF794FB059B089810
:1035000000934204069225201946FFF795FB039885
:10351000059B069A00931946FFF78EFB1720FFF7CD
:1035200081FB2220FFF77EFB049A05990898009101
:10353000C30407933220FFF75DFB0599069A079BAA
:1035400000913920FFF756FB049A0599079B0091DB
:103550002120FFF74FFB0599069A079B0091162043
:10356000FFF748FB0599069A079B00912620FFF775
:1035700041FB0599069A079B00912420FFF73AFB2F
:103580000599069A079B00912320FFF733FB0599C5
:10359000069A079B00913320FFF72CFB0599069AAA
:1035A000079B00913720FFF725FB0599069A079B9B
:1035B00000911020FFF71EFB0599069A079B0091CA
:1035C0001C20FFF717FB0599069A079B00912A20FC
:1035D000FFF710FB0599069A079B00911120FFF752
:1035E00009FB0599069A079B00911D20FFF702FB36
:1035F0000599069A079B00912C20FFF7FBFA059985
:10360000069A079B00913020FFF7F4FA09981F49AA
:10361000FFF7AEFA0899099849030B91FFF76AFB87
:1036200009981B49FFF7C4FA089909980906FFF79A
:1036300053FB0899099809030A91FFF78DFA099835
:103640000A99FFF7A9FA0C981249FFF791FA0C981A
:103650008021FFF74FFB0C980F49FFF7A9FA0B9950
:103660000C98FFF739FB0C980C49FFF759FB0C98A5
:103670000B490D91FFF770FA0C980D99FFF78CFA32
:103680000EB080BD00200A4000000A400400010086
:10369000042001000800450088004500004080002B
:1036A0004000800880B584B01449BC480390FFF7FF
:1036B0000DFD03981349FFF7D7FB039800230293EE
:1036C00019461A46FFF70EFD029B0398009320212E
:1036D0001A46FFF7E7FC029A03981146FFF7D4FC5D
:1036E000029A03981146FFF7E9FC0398FFF78EFB57
:1036F00003980121FFF7BEFC04B080BD2C600000E0
:1037000000A086403060000080B584B01449A24813
:103710000390FFF7DBFC03981349FFF7A5FB039821
:103720000023029319461A46FFF7DCFC029B03981C
:10373000009320211A46FFF7B5FC029A0398114620
:10374000FFF7A2FC029A03981146FFF7B7FC039813
:10375000FFF75CFB03980121FFF78CFC04B080BDF0
:1037600038600000008086403C60000080B582B078
:1037700000200190FFF70AFB0198FFF71FFBFFF7FE
:10378000F5FAFFF7F9FA0198FFF726FB0198FFF722
:1037900009FB02B080BD80B57D20000200F0DAF99F
:1037A00080BD000080B582B008497E480190FFF7D7
:1037B0008DFC01980649FFF7DBFB01980121FFF71B
:1037C0002FFB0198FFF722FB02B080BD4460000090
:1037D0004860000080B582B00849A8480190FFF712
:1037E00075FC01980649FFF7C3FB01980121FFF71B
:1037F00017FB0198FFF70AFB02B080BD5C60000078
:103800006060000080B582B00D496E480190FFF7FE
:1038100043FD01980B49FFF7DFFC01980021FFF7FA
:1038200044FD019811211722FFF710FD0198012195
:103830008902FFF7ADFC0198FFF786FC02B080BD5E
:10384000746000007660000080B582B0154956486B
:103850000190FFF721FD01981349FFF7BDFC019886
:103860000021FFF722FD019811211722FFF7EEFC3E
:10387000019801210091FFF78BFC009901988902C2
:10388000FFF76EFC0198FFF777FC01982021FFF706
:103890001BFD00990198FFF729FD0198FFF754FCE3
:1038A00002B080BD806000008260000080B500F042
:1038B0002BF8FFF7DFFDFFF759FFFFF725FFFFF7B5
:1038C000F1FEFFF793FDFFF76DFFFFF783FFFFF7B3
:1038D00099FFFFF7B9FFFFF7C9FDFFF75CFF064946
:1038E0009C2200208854054988540549B8228854F0
:1038F0000449885480BDC046F40120205401202092
:10390000940220205003202080B58AB021480190E5
:10391000FFF7DAF98B480290FFF7D6F91E480390BB
:10392000FFF79CFB89480490FFF798FB1C48059023
:10393000FFF794FB1B480690FFF790FB4F4807905A
:10394000FFF78CFB1F480890FFF774FC164809909E
:10395000FFF770FC0198FFF737F90298FFF734F989
:103960000398FFF76BFA0498FFF768FA0598FFF7DA
:1039700065FA0698FFF762FA0798FFF75FFA08986A
:10398000FFF714FC0998FFF711FC1020FFF79CF8D3
:103990000AB080BD00000A400080864000A086403A
:1039A00000000940000086400000104080B582B051
:1039B000014601A8017001780248FFF7A9FC02B096
:1039C00080BDC0460080104080B58CB00B900B9835
:1039D000002826D4FFE70B98FDF7EEF808905C4925
:1039E000079101F0C3FF014608980029099001D111
:1039F000079809900998FDF795F80B9051480690A3
:103A00000421FFF781F906980821FFF7BBF80B990D
:103A10004D48401A0A900A9918480122FFF74EFBB8
:103A200029E00B98FDF7C8F804904549039101F08F
:103A300085FF014604980029059001D1039805905F
:103A4000059801210291C9074840FDF76BF80B90DA
:103A50003C4801900421FFF795F801980821FFF7F1
:103A600053F9029A0B993848401A0A900A99034868
:103A7000FFF724FBFFE70CB080BDC0460020864066
:103A800080B58CB00B900B98002829D4FFE70B98D9
:103A9000FDF792F808902E49079101F067FF014663
:103AA00008980029099001D1079809900998FDF715
:103AB00039F80B90012006900104FF480590FFF7AC
:103AC00023F905980699C903FFF75CF8069A0B9944
:103AD0001D48401A0A900A991C48FFF7EFFA2CE09B
:103AE0000B98FDF769F803901549029101F026FF44
:103AF000014603980029049001D10298049004988B
:103B000001210191C9074840FDF70CF801460198D1
:103B10000B910104E8480090FFF734F800980199F0
:103B2000C903FFF7F1F8019A0B990748401A0A9068
:103B30000A990648FFF7C2FAFFE70CB080BDC046FD
:103B4000003C1CC600200A400F27000000A0864051
:103B5000003C1C4680B584B002900298401E000EC6
:103B6000002803D0FFE70120039011E00298401ED7
:103B70000949086000200190C043032100F0FCFBCC
:103B8000019806490860064A072111600390FFE783
:103B9000039804B080BDC04614E000E018E000E0E7
:103BA00010E000E005480068002805D0FFE7034961
:103BB0000868401E0860FFE77047C04610012020DB
:103BC00080B590B0A748FFF745F9012800D045E13E
:103BD000A548006800286DD0FFE7A44800680628C3
:103BE00068D0FFE7A1480068042863D0FFE7A04839
:103BF0000068A049096802F0DDF801469E480160AE
:103C000001689E480F90006801F0B8FF01460F98C8
:103C1000016000689A4901F09CFE002804D1FFE78A
:103C2000964997480860FFE794480068954901F075
:103C30007AFE002804D1FFE7904992480860FFE728
:103C40008D480C90006890490B91096802F0B2F819
:103C500001460C988D4A0992116000688C4902F067
:103C600051F8014609980A910168084601F086FF5B
:103C70000A9901F083FF0B9902460C98854B0E932D
:103C80001A600068086084480D900068FCF794FF93
:103C90000E99096802F08EF801460D987F4A11606E
:103CA0000068FCF789FF0E99096801F067FF7C49FD
:103CB0000860FFE77B4800680A280ADCFFE77A48CB
:103CC0000068022805D1FFE77848006801280AD07B
:103CD000FFE777480068022817D1FFE775480068BA
:103CE000012812D1FFE7012081047348FFF724F86F
:103CF0006C480068062803DBFFE7FEF7C5FEFFE718
:103D000068490868401C0860FFE76C4800680128A3
:103D100019D0FFE76A480068012814D0FFE7684817
:103D2000006803280FD0FFE75048006801280AD038
:103D3000FFE74E480068042805D0FFE74B480068BD
:103D4000062863D1FFE75F4800685F49096802F011
:103D500031F801465D48016001685D4808900068DF
:103D600001F00CFF0146089801600068594901F014
:103D7000F0FD002804D1FFE7554956480860FFE7E9
:103D800053480068544901F0CEFD002804D1FFE7F4
:103D90004F4951480860FFE74C48059000684F497B
:103DA0000491096802F006F805994D4A02921060E4
:103DB0004C480068096801F0A5FF0146029803918C
:103DC0000168084601F0DAFE039901F0D7FE049974
:103DD00002460598444B07931A60006808602E4815
:103DE00006900068FCF7E8FE0799096801F0E2FF19
:103DF00001460698DF4A11600068FCF7DDFE07996E
:103E0000096801F0BBFEEA490860FFE7D148006895
:103E1000FCF7D2FE354901910860D0480068FCF7F4
:103E2000CBFE0199486011480068FCF7C5FE019976
:103E300088602F480068FCF7BFFE01460198C1600A
:103E40002149096801611F4909684161062100F0A3
:103E500029FA04480121FEF7CDFF00E0FFE710B08A
:103E600080BDC04600208640A00020208400202085
:103E70000C002020080120204401202014042020D0
:103E800000004842000048C2480120201C012020B8
:103E900000001B43A8002020000020205C042020FC
:103EA000600420206C042020A40020208800202012
:103EB000900020208C00202000200A407C00202040
:103EC0008000202078002020B00020204C012020FD
:103ED000180420200000F0410000F0C15001202013
:103EE0002001202004002020F8042020B8002020F9
:103EF0009800202010B592B09448FEF7ABFF01283F
:103F000000D020E192490B68924A1068C0181060F6
:103F100091480468914B1A6812191A600968904A0E
:103F20000E92116001688F4801600068FCF744FE42
:103F30008D490F91FCF746FD01460E988B4A109271
:103F400011600068FCF738FE0F99FCF73BFD1099F3
:103F5000874A106087480068096801F02BFF014616
:103F600085480160016885481190006801F006FEEF
:103F70000146119801600068814901F0EAFC0028BF
:103F800004D1FFE77D497E480860FFE77B48006871
:103F90007C4901F0C8FC002804D1FFE77749794843
:103FA0000860FFE774480C90006877490D91096834
:103FB00001F000FF01460C98744A0A9211600068F3
:103FC00008906E480068724901F09CFE014608980E
:103FD0000991704901F096FE099901F0CFFD014663
:103FE0000A980B9100686C4901F08CFE0B9901F066
:103FF000C5FDFCF797FD0C990D9A034667480360D1
:10400000096811600068FCF7D7FD654901F0A1FC63
:10401000002804D1FFE7614962480860FFE75F4874
:104020000068FCF7C9FD604901F07DFC002804D15F
:10403000FFE75A495D480860FFE758480068FFF706
:10404000C3FC5B4800684A49096801F0B3FE0146B9
:1040500058480160016858480790006801F08EFDDB
:104060000146079801600068454901F072FC00288C
:1040700004D1FFE7504942480860FFE74E48006816
:10408000404901F050FC002804D1FFE74A493D486F
:104090000860FFE7474805900068484906910968AD
:1040A00001F088FE01460598454A039211600068B8
:1040B000019041480068434901F024FE01460198FF
:1040C0000291414901F01EFE029901F057FD01469F
:1040D0000398049100683D4901F014FE049901F031
:1040E0004DFDFCF71FFD0599069A0346384803600D
:1040F000096811600068FCF75FFD294901F029FC9F
:10410000002804D1FFE7324926480860FFE730481D
:104110000068FCF751FD244901F005FC002804D19A
:10412000FFE72B4921480860FFE729480068FFF7AF
:10413000A7FC0749002008600749086003480121DF
:10414000FEF758FEFFE712B010BDC0460040084021
:104150002C012020300120202401202028012020B3
:104160002804202024042020CDCC4C3D2C042020E9
:10417000340420205C042020340120200C04202062
:1041800000C0DA4500C0DAC5380120201401202023
:10419000CDCC4C3F0000E0403333B33F300420200F
:1041A00000401C461027000000401CC6F0D8FFFF4E
:1041B000600420203C012020100420204001202009
:1041C00018012020CDCCAC3F000020410000204051
:1041D0003804202080B50548FEF7F4FF002804D0FD
:1041E000FFE70F2000F09CF8FFE780BD0080104043
:1041F00010B584B02548FEF7E5FF0B2843D1FFE753
:104200002248FFF70DF8014603A8017000780D2839
:1042100005D0FFE703A800780A281DD1FFE71C4856
:104220000078012817DBFFE7194800900278194849
:1042300002900021019181541749184AFBF7CAFFE7
:10424000009A01990298164C012323701170802165
:10425000FBF7FCFFFFE715E00D4800787E2808D843
:10426000FFE703980A4B1A78511C197009498854C2
:1042700007E007490020087006488021FBF7E6FFA9
:10428000FFE7FFE700E0FFE704B010BD00001040CB
:10429000F4042020740420208C600000B000202052
:1042A000AC00202080B588B00790069100200590D2
:1042B000FFE70598069988421BDAFFE707980599FA
:1042C00089004018049000200390FFE7039803281A
:1042D0000ADCFFE704980399405CFFF767FBFFE700
:1042E0000398401C0390F1E7FFE70598401C0590F8
:1042F000DFE7FF20C005029000200190FFE7019852
:1043000003280ADCFFE7019902A8405CFFF74EFB97
:10431000FFE70198401C0190F1E708B080BD000064
:1043200081B001466846017000214056002809D43A
:10433000FFE7684601781F200140012088400249BC
:104340000860FFE701B0704780E200E081B00146FD
:104350006846017000214056002809D4FFE76846EE
:1043600001781F2001400120884002490860FFE7D2
:1043700001B0704700E100E070B582B0024601A8CC
:104380000270009100214056002816D4FFE7002457
:1043900001A908570322D3431840174A80580957E8
:1043A0008C07E50EFF24AC40A043009CA401E4B2BE
:1043B000AC402043194088501AE001A908780F2426
:1043C000204008380322D34318400A4A8058002569
:1043D00049578D07EE0EFF25B540A843009DAD015E
:1043E000EDB2B54028432140083919408850FFE715
:1043F00002B070BD1CED00E000E400E010B5A4B018
:1044000000202390FFF752FAFC48FEF787FEFEF7E4
:10441000E5FF0F201D90FFF783FF1D98FFF796FF24
:104420000D201E90FFF77CFF1E98FFF78FFF1320D3
:104430001F90FFF775FF1F98FFF788FFF048FEF702
:104440006DFE01202090FFF76BFF2098FFF77EFFA5
:1044500010202190FFF764FF2198FFF777FFFFE717
:1044600001F076F8FFE7E7480068E74901F071FAE4
:10447000002809D1FFE7E3481C900068E34901F0F8
:104480007DFB1C990860EEE7FFE7DE480068E04925
:1044900001F049FA002809D1FFE7DA481B900068CB
:1044A000DC4901F06BFB1B990860EEE7DA48007805
:1044B000002830D0FFE7D948006832282BDCFFE71E
:1044C000D7480168D7481A90006801F057FB1A993D
:1044D0000860D2480068322815D1FFE7D14800684B
:1044E000FCF746FA18901991CC480068FCF735FAA9
:1044F000024618980B461999FBF7EAFFFBF7AAFF4B
:10450000C0490860FFE7C5490868401C0860C24907
:1045100000200870FFE7C448006800281CD1FFE7AE
:1045200001204104C148FEF7B9FB002814D1FFE780
:104530001420FEF7F7FEFFE701204104BB48FEF719
:10454000ADFB002801D1FFE7F6E71420FEF7EAFEF5
:10455000B74901200860FFE7B5480068012832D15B
:10456000FFE7B4480068B44988422CDBFFE7B34852
:104570000068B149884226DBFFE7B148006800289F
:1045800021D0FFE7AA4900200860AE490860AE4983
:104590000860AE4A8121C9051160A6490860A74993
:1045A00008607D2080001790FEF7BCFE012081048A
:1045B000A748FEF7C1FBFEF771FA1798FEF7B2FEA7
:1045C000FEF762FAFFE79848006800281CD1FFE771
:1045D000012001069E48FEF761FB002814D1FFE789
:1045E0001420FEF79FFEFFE7012001069848FEF722
:1045F00055FB002801D1FFE7F6E71420FEF792FEF5
:104600008B4902200860FFE78948006802281ED114
:10461000FFE790480068002819D1FFE78548006847
:104620008D49884213DBFFE7844800688A49884245
:104630000DDBFFE77E49002008607E4A10607F4A5C
:10464000106002200860834901200860FFE7784875
:104650000068022847D1FFE77E480068012842D160
:10466000FFE77E48006800280DD1FFE765481690F7
:1046700000687B4901F082FA16990860774908685A
:10468000401C0860FFE75F4800686549096801F061
:1046900091FB7F21C90501F046F900280FD1FFE702
:1046A0006E48006801280AD1FFE7624900200860CF
:1046B0006249086069490868401C0860FFE75D4876
:1046C0000068684988420DDBFFE75C48006865497F
:1046D000884207DBFFE75F49032008605449022056
:1046E0000860FFE7FFE75B480068032832D1FFE777
:1046F0004F48006802282DD1FFE74948006841492A
:10470000096801F057FB584901F023F9002821D12D
:10471000FFE74749002008604A4908604A490860A5
:104720004A4A8121C905116042490860434908602D
:104730007D2080001590FEF7F5FD0120810444489E
:10474000FEF7FAFAFEF7AAF91598FEF7EBFDFEF769
:104750009BF9FFE73448006800281CD1FFE70120DF
:1047600081033248FEF79AFA002814D1FFE714209B
:10477000FEF7D8FDFFE7012081032C48FEF78EFAF3
:10478000002801D1FFE7F6E71420FEF7CBFD28490A
:1047900003200860FFE72648006803281ED1FFE7D2
:1047A00032480068002819D1FFE7224800682A49EA
:1047B000884213DBFFE721480068274988420DDB68
:1047C000FFE71B49002008601A4A10601B4A10606E
:1047D00003200860254901200860FFE714480068AD
:1047E000032800D088E021480068012800D083E039
:1047F0001A480068002848D13AE0C0460000094045
:104800000020864078002020000034430000B4C31C
:10481000000034C30000B443AC002020100020206E
:10482000B0002020B40020209000202000000A408A
:10483000A000202030012020B10400002801202009
:104840009C0020205C0420206004202008012020FF
:1048500000200A407C002020850300006404202002
:104860000000B442E90300000000A04280002020C4
:10487000FC4814900068FC4901F080F91499086024
:10488000FA490868401C0860FFE7F6480068F849E4
:10489000096801F08FFA7F21C90501F044F800286A
:1048A0000FD1FFE7F148006801280AD1FFE7F1497D
:1048B00000200860F0490860EC490868401C086066
:1048C000FFE7EC480068ED49884214DBFFE7EA485F
:1048D0000068EA4988420EDBFFE7E94902200860E8
:1048E000E84903200860E34900200860E2490860C5
:1048F000DE490860FFE7FFE7E248006803281FD1B0
:10490000FFE7DF48006802281AD1FFE7DE480068A9
:10491000652815DBFFE7D7480068DC4988420FDBD4
:10492000FFE7D5480068D949884209DBFFE7D1494C
:1049300000200860D0490860D14903200860FFE7E3
:10494000D0480068032840D1FFE7CD48006803281D
:104950003BD1FFE7C548006800280DD1FFE7C148FB
:1049600013900068CA4901F009F913990860BF491A
:104970000868401C0860FFE7BA480068BC4909683D
:1049800001F018FA7F21C90500F0CDFF00280FD1F2
:10499000FFE7B648006801280AD1FFE7B5490020C3
:1049A0000860B5490860B1490868401C0860FFE725
:1049B000B5480068002807D1FFE7B1490420086026
:1049C000B04903200860FFE7FFE7AE48006803280E
:1049D0002BD1FFE7AA480068042826D1FFE7AD489D
:1049E0000068012821D1FFE7A64900200860AA49F4
:1049F0000860AA490860AA4A8121C90511609D4939
:104A000008609D4908607D2080001290FEF78AFCB6
:104A100001208104A348FEF78FF9FEF73FF81298B2
:104A2000FEF780FCFEF730F8FFE79F48006800289B
:104A30001CD1FFE70120C1039C48FEF72FF9002895
:104A400014D1FFE71420FEF76DFCFFE70120C1033E
:104A50009648FEF723F9002801D1FFE7F6E7142076
:104A6000FEF760FC874904200860FFE7854800687E
:104A700004281AD1FFE78E480068002815D1FFE707
:104A80007C4800688B4988420FDBFFE77A48006862
:104A90008849884209DBFFE77649002008607649AB
:104AA0000860834901200860FFE776480068042811
:104AB0004ED1FFE77E480068012849D1FFE76B48E7
:104AC000006800280DD1FFE766481190006866492C
:104AD00001F054F81199086064490868401C0860A6
:104AE000FFE7604800686249096801F063F97F21C7
:104AF000C90500F018FF00280FD1FFE75B480068E8
:104B000001280AD1FFE75B49002008605A49086084
:104B100056490868401C0860FFE756480068574936
:104B2000884214DBFFE754480068544988420EDB92
:104B3000FFE75F49022008605249042008604D49A0
:104B4000002008604C49086048490860FFE7FFE71B
:104B50004C48006804281AD1FFE75548006802282D
:104B600015D1FFE743480068444988420FDBFFE75F
:104B7000414800684149884209DBFFE73D49002080
:104B800008603D4908604A4903200860FFE73D4846
:104B9000006804281DD1FFE745480068032818D1A4
:104BA000FFE734480068652813DBFFE732480068F8
:104BB00065280EDBFFE740480068012809D1FFE7C0
:104BC0002C49002008602C490860394904200860FD
:104BD000FFE72C48006804287FD1FFE734480068CD
:104BE00004287AD1FFE72148006800280DD1FFE7AB
:104BF0001C4810900068264900F0C0FF109908601A
:104C00001A490868401C0860FFE716480068184900
:104C1000096801F0CFF8002100F085FE00280BD1D3
:104C2000FFE7104800681249096801F0C3F8012144
:104C3000C90748400F9007E00A4800680C49096816
:104C400001F0B8F80F90FFE70F987F21C90500F039
:104C50006AFE002840D1FFE70448006801283BD1E4
:104C60002CE0C046780020200000B44264042020DC
:104C7000B00020203001202028012020E90300007E
:104C800080002020A00020209C002020DD050000C6
:104C900000003443940020205C0420206004202085
:104CA0000801202000200A409000202000000A4037
:104CB000840020208503000098002020FA4900206D
:104CC0000860FA490860FA490A68521C0A60F94B00
:104CD00005221A600860FFE7FFE7F748006804282C
:104CE0001FD1FFE7F348006805281AD1FFE7EE4817
:104CF0000068F249884214DBFFE7EC480068EF499E
:104D000088420EDBFFE7EE480068012809D1FFE783
:104D1000E54900200860E5490860E649062008608A
:104D2000FFE7E5480068042851D1FFE7E148006843
:104D300006284CD1FFE7DE48006800280DD1FFE7C8
:104D4000E0480E900068E04900F018FF0E990860F6
:104D5000D7490868401C0860FFE7DA480068DB496B
:104D6000096801F027F8002100F0DDFD00280BD1D3
:104D7000FFE7D4480068D549096801F01BF8012114
:104D8000C90748400D9007E0CE480068CF49096840
:104D900001F010F80D90FFE70D98CD4900F0C3FD2C
:104DA000002813D1FFE7C248006801280ED1FFE7B1
:104DB000BD4900200860BD490860BD490A68521C11
:104DC0000A60BC4B07221A600860FFE7FFE7BA4899
:104DD000006804281FD1FFE7B648006807281AD1E9
:104DE000FFE7B1480068B549884214DBFFE7AF48E8
:104DF0000068B24988420EDBFFE7B6480068B64952
:104E0000884208DBFFE7A849002008600860A9493C
:104E100008200860FFE7A848006804283DD1FFE7A4
:104E2000A4480068082838D1FFE7A1480068002896
:104E30000DD1FFE7A3480C900068A84900F09EFE42
:104E40000C9908609A490868401C0860FFE79D4873
:104E500000689E49096800F0ADFF7F21C90500F098
:104E600062FD00280FD1FFE79148006801280AD1B0
:104E7000FFE78D49002008608C4908608C4908686C
:104E8000401C0860FFE793480068002804D1FFE752
:104E9000884909200860FFE7FFE787480068042881
:104EA0002BD1FFE783480068092826D1FFE7844813
:104EB0000068012821D1FFE77F4900200860884968
:104EC000086088490860884A8121C90511607649CF
:104ED0000860764908607D2080000B90FEF722FA7A
:104EE000012081048148FDF727FFFDF7D7FD0B98CE
:104EF000FEF718FAFDF7C8FDFFE77D4800680028B7
:104F000031D1FFE7012041067848FDF7C7FE0028B0
:104F100029D1FFE71420FEF705FAFFE7012041063B
:104F20007248FDF7BBFE002810D1FFE70A20FEF70C
:104F3000F9F970480168491C01600068322804DBF7
:104F4000FFE76B4901200860FFE7E7E71420FEF761
:104F5000E9F968480068312804DCFFE76649022067
:104F60000860FFE7FFE76448006802282AD1FFE7EE
:104F700062480068002825D1FFE74B480068604977
:104F800088421FDBFFE7494800685D49884219DB1A
:104F9000FFE75949099100200890086001200A9014
:104FA00081045248FDF7C8FE08983F4908603F4910
:104FB0000860FDF773FD099A0A98022111604F49B4
:104FC0000860FFE74C48006802282DD1FFE74B48F6
:104FD0000068012828D1FFE74A480068002809D165
:104FE000FFE73848079000683C4900F0C7FD079983
:104FF0000860FFE7334800683449096800F0DAFECA
:10500000414900F090FC002809D1FFE72649002023
:10501000086026490860394903200860FFE73949DC
:105020000868401C0860FFE733480068022830D158
:10503000FFE73248006803282BD1FFE71A480068D1
:105040003249884225DBFFE7184800682F4988422B
:105050001FDBFFE728490020086028490860204935
:1050600008602049086010490860104908607D20E8
:1050700080000690FEF756F9012081041B48FDF7D9
:105080005BFEFDF70BFD0698FEF74CF9FDF7FCFC07
:10509000FFE717480068012800D0FCE01C480068C2
:1050A000002843D136E0C0463001202028012020CE
:1050B0006404202084002020A0002020E9030000B8
:1050C00094002020780020200000B4C2B0002020EE
:1050D0000000A0409C002020112700000000B442E6
:1050E0005C042020600420200801202000200A40C9
:1050F0009000202070042020A40020208800202080
:105100003102000020042020000040408503000000
:105110000C012020FDF7C2FC6420FEF703F9FDF727
:10512000B3FCF4490868401C0860FFE70120C10394
:10513000F448FDF7B3FD002817D1FFE71420FEF770
:10514000F1F8FFE70120C103EE48FDF7A7FD0028B5
:1051500001D1FFE7F6E71420FEF7E4F8F549086807
:10516000401C0860FDF7A4FCFFE701208103E5482F
:10517000FDF794FD00281DD1FFE71420FEF7D2F8BB
:10518000FFE701208103DF48FDF788FD002801D1FA
:10519000FFE7F6E71420FEF7C5F8E64800680028A8
:1051A00005D0FFE7E3490868401E0860FFE7FDF708
:1051B0007FFCFFE701204104D248FDF76FFD002886
:1051C00031D1FFE71420FEF7ADF8FFE701204104DD
:1051D000CC48FDF763FD002801D1FFE7F6E7142076
:1051E000FEF7A0F800202290FFE72298D149096835
:1051F000884217DAFFE7012081040491C94803902F
:10520000FDF79AFDC8200590FEF78CF803980499E5
:10521000FDF792FD0598FEF785F8FFE72298401C00
:105220002290E2E7FFE701200106BE48FDF736FDC8
:10523000002814D1FFE71420FEF774F8FFE70120DF
:105240000106B848FDF72AFD002801D1FFE7F6E77F
:105250001420FEF767F8AC4942200860FFE7B54824
:105260000068002816D0FFE701204106AD48FDF791
:1052700015FD00280ED1FFE7FDF710FC6420FEF7B6
:1052800051F8FDF701FCAC49012008609C4902205F
:105290000860FFE7FFE7A948FEF796FBA54800680E
:1052A000002830D0FFE79648006802282BD1FFE79E
:1052B000A1480068012826D1FFE794480068A0496A
:1052C000884220DBFFE7924800689D4988421ADB4C
:1052D000FFE790480068FF21F631884213DBFFE7C3
:1052E000874A00201060944908608D4C8123DB05BB
:1052F0002360864B1860864B1860924B1860022022
:1053000010600860FFE78B480068002833D0FFE793
:105310007B48006802282ED1FFE7874800680228F2
:1053200029D1FFE78048006800280DD1FFE77248C7
:10533000029000687D4900F021FC029908607A49DA
:105340000868401C0860FFE76B4800686B49096803
:1053500000F030FD7F21C90500F0E5FA002809D1F1
:10536000FFE76A4900200860694908607249032024
:105370000860FFE7FFE76F48006800282CD0FFE7D0
:105380005F480068022827D1FFE76B4800680328C0
:1053900022D1FFE75D4800686B4988421CDBFFE7CC
:1053A0005B4800686849884216DBFFE7544A0020E2
:1053B000106061490860584B1860584B1860584C91
:1053C0008123DB052360514B1860514B186002208C
:1053D000106004200860FFE756480068002833D0BA
:1053E000FFE74748006802282ED1FFE752480068CF
:1053F000042829D1FFE75548006800280DD1FFE7B0
:105400003D48019000684A4900F0B8FB01990860E6
:105410004E490868401C0860FFE737480068374974
:10542000096800F0C7FC7F21C90500F07CFA00285C
:1054300009D1FFE7354900200860354908603E4939
:1054400005200860FFE7FFE73A48006800284ED0D3
:10545000FFE72B480068022849D1FFE7364800687B
:10546000052844D1FFE729480068FF21F63188422A
:105470003DDBFFE726480068FF21F631884236DB36
:10548000FFE71F490020009008602B4908602F4962
:105490000860254908602049086020490860C94A19
:1054A0008121C9051160194908601949086021481E
:1054B0000168491E01600068002804DCFFE71D49FF
:1054C00000200860FFE701208104B848FDF734FCA4
:1054D000FDF7E4FA17480068002807D0FFE70849FD
:1054E00002200860144901200860FFE7FFE7FEF78B
:1054F000B7FFC0460C01202078002020B0002020FB
:105500009000202000000A40A00020203001202030
:10551000280120209C0020205C0420206004202002
:105520000801202000200A40640420200000B4422A
:105530000000B4C21C0420208C0020201027000092
:10554000110E00006C04202053030000680420208A
:1055500080B58CB094490020086094481021FDF774
:10556000A8FB00280DD0FFE79149012008608E4874
:105570000A9000687F21C90500F000FB0A990860C5
:1055800003E08B4900200860FFE701200103874802
:10559000FDF78FFB00280DD0FFE78549012048600B
:1055A0008148099000687F21C90500F0E7FA099950
:1055B000086003E07E4900204860FFE701204104C5
:1055C0007A48FDF776FB00280DD0FFE778490120E7
:1055D00088607548089000687F21C90500F0CEFA00
:1055E0000899086003E0724900208860FFE76F486F
:1055F0002021FDF75EFB00280DD0FFE76C4901205C
:10560000C8606948079000687F21C90500F0B6FAB4
:105610000799086003E066490020C860FFE70120A1
:1056200041036248FDF745FB00280DD0FFE76049C4
:10563000012008615C48069000687F21C90500F0E0
:105640009DFA0699086003E0594900200861FFE7C8
:105650000120C1045548FDF72CFB00280DD0FFE7C1
:105660005349012048615048059000687F21C905D1
:1056700000F084FA0599086003E04D490020486174
:10568000FFE7012041054948FDF713FB00280DD035
:10569000FFE74749012088614348049000687F2163
:1056A000C90500F06BFA0499086003E04049002046
:1056B0008861FFE73E4908684A68520080188B6895
:1056C00003225A438018CA68920080180B69052289
:1056D0005A4380184B6906225A4380188A69072169
:1056E00051434018FBF768FA0B902F4800680021DF
:1056F00000F00EF9002809D0FFE73348006831496F
:1057000008602F490868401C08604BE02648006884
:10571000284900F0FDF8002804D0FFE726490120C1
:10572000086003E0244900200860FFE72048006883
:10573000012805D1FFE71E48406801280AD0FFE78D
:105740001B484069012809D1FFE7194880690128F1
:1057500004D1FFE719490120086003E01749002040
:105760000860FFE716490020039008600B98FBF7DC
:10577000FFF8009001910C4802900068FBF7F8F8E0
:10578000024600980B460199FAF7A2FEFAF762FE6C
:105790000299034603980B4A136012680A4B1A6079
:1057A0000860FFE70CB080BD5804202000200A40AC
:1057B0003C0420200000E04094002020980020209D
:1057C0009C0020200801202008002020F8B5040CAF
:1057D0008BB2264682B25E43104658430D0C370CFE
:1057E000360400218019164679416E43370C360481
:1057F0008019264679416E438919F8BD10B50721F5
:10580000024A00200907FDF70DF910BD0103000051
:10581000034A10B500201107FDF704F910BD000080
:1058200001FDFFFF10B504460868496800F002F862
:10583000206010BDF8B504460D466A4600F0A8F891
:1058400000987E30009000281CDC00221346204681
:10585000294600F02DF915D0264E002130460020B3
:10586000C046074620462946FAF7F4FD044637406D
:10587000394630460020C04660002FD10220FCF798
:1058800004FE2BE00098FF282EDB002108460020B4
:10589000C0460321890508400646002213462046DB
:1058A000294600F037F901D8012500E00025022043
:1058B000FCF7EBFDFF24E405002E09D0002D02D0FB
:1058C0000120800501E00120C005B04200D00A4C53
:1058D000042108460020C046002D01D02046F8BD16
:1058E0000120C0076040F8BD20462946FAF7B2FD06
:1058F000F8BD000008080000FFFF7F7F10B50446D8
:105900000A460068616800F06FF86160206010BDB1
:1059100010B500F079F9EFF30080400001D50120C7
:1059200010BD002010BD10B500F098F9EFF3008015
:10593000800001D5012010BD002010BD10B500F081
:105940008DF9EFF300804000800F012800D0002087
:1059500010BD10B500F0ACF9EFF300804000800FEF
:10596000012801D0012010BD002010BD10B500F0AD
:105970009FF9EFF30080800001D4012010BD0020CA
:1059800010BD30380A2801D201207047002070472E
:1059900070B51446002222604B000F4A5B08934208
:1059A00019DA02461A4316D001221205934201DB8E
:1059B000226807E03622FDF735F84B005B083522F8
:1059C000D2432260054D1B0D5B19D2182260044A98
:1059D0001140044A891870BD0000F07F02FCFFFFEF
:1059E000FFFF0F800000E03F70B50546080DC04383
:1059F00016460C4640052CD000221346284600F0DF
:105A000057F826D0324628462146FDF70BF80546C2
:105A1000080DC0430C46400510D00022134628460E
:105A200000F046F815D10220FCF72FFDFFF7F0FE3D
:105A300049004908E20FD207114370BD0220FCF76C
:105A400024FDFFF7DBFE49004908E20FD2071143AE
:105A500070BD2846214670BD10B500290AD00878CF
:105A6000002807D005487844FCF74EFF002801D0F5
:105A7000002010BD0248784410BD00005A06000006
:105A80005206000010B500290AD00878002807D077
:105A900005487844FCF738FF002801D0002010BDED
:105AA0000248784410BD00004A060000420600008B
:105AB00070B501252D050C001C4310D4EC4206D412
:105AC000AC420AD4994200D070BD904270BDE94208
:105AD00017D4EB4215D4994270BD894270BDEC4297
